:020000006B296A
:1000060083120313FD01F801700803190034740606
:10001600FA00FA1BFD09FB01F41F1328F409F40A80
:10002600F01F1728F009F00A70087404FA00FA1B8A
:100036003B287408F802F00D700DF80D7408F807E7
:10004600F00D0630FC00700DF80D74087018F802FB
:10005600701CF807F00DFC0B2628701CF8077B189F
:100066004928FD1F0034F009F00AF809F80A00349F
:10007600F41F4628F01B43287008F800F0013428C6
:10008600F001F00A0034F009FB0A1C28F80A74088B
:100096007802031D3428F801F00AF01F3428FF34D3
:0200A600080050
:1000A8008312031309140A30F4002608F000032011
:1000B8007008A4000A30F4002608F000032078082D
:1000C800F0007008A500700887001A30FC00F830AE
:1000D800FD00FD0B6D28FC0B6D280000240888002E
:1000E8001A30FC00F830FD00FD0B7828FC0B78284E
:0400F80000000800FC
:0E00FC008312031321088A00200882000800E6
:10010A00033083120313A30080302306F0008030EB
:10011A00003A7002031CA3288610061586110612DF
:10012A0086160613A2012208323C031CA1282308C2
:10013A00A6005420A20A9828A30389281730A300EE
:10014A0080302306F0008030003A7002031CC22877
:10015A00861006118615061686120613061CB62880
:10016A00C228A2012208323C031CC0282308A60088
:0C017A005420A20AB728A303A5280800FF
:10018600033083120313A30080302306F00080306F
:10019600003A7002031CE128861006158611061225
:1001A60086160613A2012208323C031CDF28230808
:1001B600A6005420A20AD628A303C7280F30A300FE
:1001C60080302306F0008030003A7002031C0029BC
:1001D600861406118611061286120617061CF428C6
:1001E6000029A2012208323C031CFE282308A6008F
:0C01F6005420A20AF528A303E328080007
:100202007E208A110A128000840AA00A0319A10A18
:08021200F003031D012908009F
:10021A00173083120313A30080302306F0008030C6
:10022A00003A7002031C3C290618202905181F29C8
:10023A00C3202029852086100615861106168612E7
:10024A0006138030143AF000803023067002031C33
:10025A00302906118615A2012208323C031C3A29CC
:10026A002308A6005420A20A3129A30311290F301A
:10027A00A30080302306F0008030003A7002031C8D
:10028A00692906184D2905184C29C3204D298520AE
:10029A0086140611861106128616061380300C3A49
:1002AA00F000803023067002031C5D2986120617AF
:1002BA00A2012208323C031C67292308A600542005
:0C02CA00A20A5E29A3033E290D290800AA
:1002D6000730831603139F000130860087018801CB
:1002E600FF3085008901831206187F2905187D29AC
:0E02F600C3207E29852080290D2176298129AB
:02400E004A2F37
:00000001FF
